{
  "_format": "hh-sol-artifact-1",
  "contractName": "RentalDapp",
  "sourceName": "contracts/RentalDapp.sol",
  "abi": [
    {
      "inputs": [
        {
          "internalType": "uint256",
          "name": "_taxPercent",
          "type": "uint256"
        },
        {
          "internalType": "uint256",
          "name": "_securityFee",
          "type": "uint256"
        },
        {
          "internalType": "contract IERC20",
          "name": "_paymentToken",
          "type": "address"
        }
      ],
      "stateMutability": "nonpayable",
      "type": "constructor"
    },
    {
      "anonymous": false,
      "inputs": [
        {
          "indexed": true,
          "internalType": "address",
          "name": "previousOwner",
          "type": "address"
        },
        {
          "indexed": true,
          "internalType": "address",
          "name": "newOwner",
          "type": "address"
        }
      ],
      "name": "OwnershipTransferred",
      "type": "event"
    },
    {
      "inputs": [
        {
          "internalType": "uint256",
          "name": "aid",
          "type": "uint256"
        },
        {
          "internalType": "string",
          "name": "reviewText",
          "type": "string"
        }
      ],
      "name": "addReview",
      "outputs": [],
      "stateMutability": "nonpayable",
      "type": "function"
    },
    {
      "inputs": [
        {
          "internalType": "uint256",
          "name": "aid",
          "type": "uint256"
        },
        {
          "internalType": "uint256[]",
          "name": "dates",
          "type": "uint256[]"
        }
      ],
      "name": "bookApartment",
      "outputs": [],
      "stateMutability": "nonpayable",
      "type": "function"
    },
    {
      "inputs": [
        {
          "internalType": "uint256",
          "name": "aid",
          "type": "uint256"
        },
        {
          "internalType": "uint256",
          "name": "bookingId",
          "type": "uint256"
        }
      ],
      "name": "checkInApartment",
      "outputs": [],
      "stateMutability": "nonpayable",
      "type": "function"
    },
    {
      "inputs": [
        {
          "internalType": "uint256",
          "name": "aid",
          "type": "uint256"
        },
        {
          "internalType": "uint256",
          "name": "bookingId",
          "type": "uint256"
        }
      ],
      "name": "claimFunds",
      "outputs": [],
      "stateMutability": "nonpayable",
      "type": "function"
    },
    {
      "inputs": [
        {
          "internalType": "string",
          "name": "name",
          "type": "string"
        },
        {
          "internalType": "string",
          "name": "description",
          "type": "string"
        },
        {
          "internalType": "string",
          "name": "location",
          "type": "string"
        },
        {
          "internalType": "string",
          "name": "images",
          "type": "string"
        },
        {
          "internalType": "uint256",
          "name": "rooms",
          "type": "uint256"
        },
        {
          "internalType": "uint256",
          "name": "price",
          "type": "uint256"
        }
      ],
      "name": "createAppartment",
      "outputs": [],
      "stateMutability": "nonpayable",
      "type": "function"
    },
    {
      "inputs": [
        {
          "internalType": "uint256",
          "name": "id",
          "type": "uint256"
        }
      ],
      "name": "deleteAppartment",
      "outputs": [],
      "stateMutability": "nonpayable",
      "type": "function"
    },
    {
      "inputs": [
        {
          "internalType": "uint256",
          "name": "id",
          "type": "uint256"
        }
      ],
      "name": "getApartment",
      "outputs": [
        {
          "components": [
            {
              "internalType": "uint256",
              "name": "id",
              "type": "uint256"
            },
            {
              "internalType": "string",
              "name": "name",
              "type": "string"
            },
            {
              "internalType": "string",
              "name": "description",
              "type": "string"
            },
            {
              "internalType": "string",
              "name": "location",
              "type": "string"
            },
            {
              "internalType": "string",
              "name": "images",
              "type": "string"
            },
            {
              "internalType": "uint256",
              "name": "rooms",
              "type": "uint256"
            },
            {
              "internalType": "uint256",
              "name": "price",
              "type": "uint256"
            },
            {
              "internalType": "address",
              "name": "owner",
              "type": "address"
            },
            {
              "internalType": "bool",
              "name": "booked",
              "type": "bool"
            },
            {
              "internalType": "bool",
              "name": "deleted",
              "type": "bool"
            },
            {
              "internalType": "uint256",
              "name": "timestamp",
              "type": "uint256"
            }
          ],
          "internalType": "struct RentalDapp.ApartmentStruct",
          "name": "",
          "type": "tuple"
        }
      ],
      "stateMutability": "view",
      "type": "function"
    },
    {
      "inputs": [],
      "name": "getApartments",
      "outputs": [
        {
          "components": [
            {
              "internalType": "uint256",
              "name": "id",
              "type": "uint256"
            },
            {
              "internalType": "string",
              "name": "name",
              "type": "string"
            },
            {
              "internalType": "string",
              "name": "description",
              "type": "string"
            },
            {
              "internalType": "string",
              "name": "location",
              "type": "string"
            },
            {
              "internalType": "string",
              "name": "images",
              "type": "string"
            },
            {
              "internalType": "uint256",
              "name": "rooms",
              "type": "uint256"
            },
            {
              "internalType": "uint256",
              "name": "price",
              "type": "uint256"
            },
            {
              "internalType": "address",
              "name": "owner",
              "type": "address"
            },
            {
              "internalType": "bool",
              "name": "booked",
              "type": "bool"
            },
            {
              "internalType": "bool",
              "name": "deleted",
              "type": "bool"
            },
            {
              "internalType": "uint256",
              "name": "timestamp",
              "type": "uint256"
            }
          ],
          "internalType": "struct RentalDapp.ApartmentStruct[]",
          "name": "Apartments",
          "type": "tuple[]"
        }
      ],
      "stateMutability": "view",
      "type": "function"
    },
    {
      "inputs": [
        {
          "internalType": "uint256",
          "name": "aid",
          "type": "uint256"
        },
        {
          "internalType": "uint256",
          "name": "bookingId",
          "type": "uint256"
        }
      ],
      "name": "getBooking",
      "outputs": [
        {
          "components": [
            {
              "internalType": "uint256",
              "name": "id",
              "type": "uint256"
            },
            {
              "internalType": "uint256",
              "name": "aid",
              "type": "uint256"
            },
            {
              "internalType": "address",
              "name": "tenant",
              "type": "address"
            },
            {
              "internalType": "uint256",
              "name": "date",
              "type": "uint256"
            },
            {
              "internalType": "uint256",
              "name": "price",
              "type": "uint256"
            },
            {
              "internalType": "bool",
              "name": "checked",
              "type": "bool"
            },
            {
              "internalType": "bool",
              "name": "cancelled",
              "type": "bool"
            }
          ],
          "internalType": "struct RentalDapp.BookingStruct",
          "name": "",
          "type": "tuple"
        }
      ],
      "stateMutability": "view",
      "type": "function"
    },
    {
      "inputs": [
        {
          "internalType": "uint256",
          "name": "aid",
          "type": "uint256"
        }
      ],
      "name": "getBookings",
      "outputs": [
        {
          "components": [
            {
              "internalType": "uint256",
              "name": "id",
              "type": "uint256"
            },
            {
              "internalType": "uint256",
              "name": "aid",
              "type": "uint256"
            },
            {
              "internalType": "address",
              "name": "tenant",
              "type": "address"
            },
            {
              "internalType": "uint256",
              "name": "date",
              "type": "uint256"
            },
            {
              "internalType": "uint256",
              "name": "price",
              "type": "uint256"
            },
            {
              "internalType": "bool",
              "name": "checked",
              "type": "bool"
            },
            {
              "internalType": "bool",
              "name": "cancelled",
              "type": "bool"
            }
          ],
          "internalType": "struct RentalDapp.BookingStruct[]",
          "name": "",
          "type": "tuple[]"
        }
      ],
      "stateMutability": "view",
      "type": "function"
    },
    {
      "inputs": [
        {
          "internalType": "uint256",
          "name": "aid",
          "type": "uint256"
        }
      ],
      "name": "getQualifiedReviewers",
      "outputs": [
        {
          "internalType": "address[]",
          "name": "Tenants",
          "type": "address[]"
        }
      ],
      "stateMutability": "view",
      "type": "function"
    },
    {
      "inputs": [
        {
          "internalType": "uint256",
          "name": "aid",
          "type": "uint256"
        }
      ],
      "name": "getReviews",
      "outputs": [
        {
          "components": [
            {
              "internalType": "uint256",
              "name": "id",
              "type": "uint256"
            },
            {
              "internalType": "uint256",
              "name": "aid",
              "type": "uint256"
            },
            {
              "internalType": "string",
              "name": "reviewText",
              "type": "string"
            },
            {
              "internalType": "uint256",
              "name": "timestamp",
              "type": "uint256"
            },
            {
              "internalType": "address",
              "name": "owner",
              "type": "address"
            }
          ],
          "internalType": "struct RentalDapp.ReviewStruct[]",
          "name": "",
          "type": "tuple[]"
        }
      ],
      "stateMutability": "view",
      "type": "function"
    },
    {
      "inputs": [
        {
          "internalType": "uint256",
          "name": "aid",
          "type": "uint256"
        }
      ],
      "name": "getUnavailableDates",
      "outputs": [
        {
          "internalType": "uint256[]",
          "name": "",
          "type": "uint256[]"
        }
      ],
      "stateMutability": "view",
      "type": "function"
    },
    {
      "inputs": [],
      "name": "owner",
      "outputs": [
        {
          "internalType": "address",
          "name": "",
          "type": "address"
        }
      ],
      "stateMutability": "view",
      "type": "function"
    },
    {
      "inputs": [],
      "name": "paymentToken",
      "outputs": [
        {
          "internalType": "contract IERC20",
          "name": "",
          "type": "address"
        }
      ],
      "stateMutability": "view",
      "type": "function"
    },
    {
      "inputs": [
        {
          "internalType": "uint256",
          "name": "aid",
          "type": "uint256"
        },
        {
          "internalType": "uint256",
          "name": "bookingId",
          "type": "uint256"
        }
      ],
      "name": "refundBooking",
      "outputs": [],
      "stateMutability": "nonpayable",
      "type": "function"
    },
    {
      "inputs": [],
      "name": "renounceOwnership",
      "outputs": [],
      "stateMutability": "nonpayable",
      "type": "function"
    },
    {
      "inputs": [],
      "name": "securityFee",
      "outputs": [
        {
          "internalType": "uint256",
          "name": "",
          "type": "uint256"
        }
      ],
      "stateMutability": "view",
      "type": "function"
    },
    {
      "inputs": [],
      "name": "taxPercent",
      "outputs": [
        {
          "internalType": "uint256",
          "name": "",
          "type": "uint256"
        }
      ],
      "stateMutability": "view",
      "type": "function"
    },
    {
      "inputs": [
        {
          "internalType": "uint256",
          "name": "appartmentId",
          "type": "uint256"
        }
      ],
      "name": "tenantBooked",
      "outputs": [
        {
          "internalType": "bool",
          "name": "",
          "type": "bool"
        }
      ],
      "stateMutability": "view",
      "type": "function"
    },
    {
      "inputs": [
        {
          "internalType": "address",
          "name": "newOwner",
          "type": "address"
        }
      ],
      "name": "transferOwnership",
      "outputs": [],
      "stateMutability": "nonpayable",
      "type": "function"
    },
    {
      "inputs": [
        {
          "internalType": "uint256",
          "name": "id",
          "type": "uint256"
        },
        {
          "internalType": "string",
          "name": "name",
          "type": "string"
        },
        {
          "internalType": "string",
          "name": "description",
          "type": "string"
        },
        {
          "internalType": "string",
          "name": "location",
          "type": "string"
        },
        {
          "internalType": "string",
          "name": "images",
          "type": "string"
        },
        {
          "internalType": "uint256",
          "name": "rooms",
          "type": "uint256"
        },
        {
          "internalType": "uint256",
          "name": "price",
          "type": "uint256"
        }
      ],
      "name": "updateAppartment",
      "outputs": [],
      "stateMutability": "nonpayable",
      "type": "function"
    },
    {
      "inputs": [
        {
          "internalType": "address",
          "name": "to",
          "type": "address"
        },
        {
          "internalType": "uint256",
          "name": "amount",
          "type": "uint256"
        }
      ],
      "name": "withdrawTokens",
      "outputs": [],
      "stateMutability": "nonpayable",
      "type": "function"
    }
  ],
  "bytecode": "0x60a06040523480156200001157600080fd5b506040516200373a3803806200373a8339810160408190526200003491620000ae565b6200003f336200005e565b600180556004929092556003556001600160a01b0316608052620000f6565b600080546001600160a01b038381166001600160a01b0319831681178455604051919092169283917f8be0079c531659141344cd1fd0a4f28419497f9722a3daafe3b4186f6b6457e09190a35050565b600080600060608486031215620000c457600080fd5b83516020850151604086015191945092506001600160a01b0381168114620000eb57600080fd5b809150509250925092565b60805161361362000127600039600081816101a8015281816105320152818161234f01526126c401526136136000f3fe608060405234801561001057600080fd5b506004361061014d5760003560e01c80639d4a2255116100c3578063d68e13021161007c578063d68e130214610324578063db2f80b71461032d578063dec30d391461034d578063df6e022214610360578063f2fde38b14610373578063f40109951461038657600080fd5b80639d4a22551461026b5780639f31a2be1461028b578063b1c98099146102c9578063bdfdee76146102de578063c4452e06146102f1578063d57a7b541461031157600080fd5b80635bb0c5d6116101155780635bb0c5d61461020257806367626e5d14610215578063715018a6146102285780637541f41c1461023057806378419f61146102475780638da5cb5b1461025a57600080fd5b8063010b58ee1461015257806306b091f9146101675780630bb9ce331461017a5780633013ce29146101a3578063455b3070146101e2575b600080fd5b610165610160366004612c14565b6103a6565b005b610165610175366004612c52565b61051d565b61018d610188366004612c7c565b610559565b60405161019a9190612c95565b60405180910390f35b6101ca7f000000000000000000000000000000000000000000000000000000000000000081565b6040516001600160a01b03909116815260200161019a565b6101f56101f0366004612c14565b610702565b60405161019a9190612d30565b610165610210366004612df5565b6107a6565b610165610223366004612c14565b6109b1565b610165610d66565b61023960045481565b60405190815260200161019a565b610165610255366004612c14565b610d7a565b6000546001600160a01b03166101ca565b61027e610279366004612c7c565b610f8c565b60405161019a9190612e8c565b6102b9610299366004612c7c565b336000908152600b60209081526040808320938352929052205460ff1690565b604051901515815260200161019a565b6102d16110c7565b60405161019a9190612ff7565b6101656102ec366004613059565b6114a2565b6103046102ff366004612c7c565b611b0b565b60405161019a9190613123565b61016561031f36600461313d565b611ddf565b61023960035481565b61034061033b366004612c7c565b6120f5565b60405161019a91906131fc565b61016561035b366004612c7c565b612157565b61016561036e366004613234565b612241565b6101656103813660046132e6565b612524565b610399610394366004612c7c565b61259d565b60405161019a9190613301565b6103ae612658565b6000828152600560205260409020600701546001600160a01b031633146104125760405162461bcd60e51b8152602060048201526013602482015272556e617574686f72697a656420656e7469747960681b60448201526064015b60405180910390fd5b600082815260066020526040902080548290811061043257610432613343565b600091825260209091206005600690920201015460ff16156104665760405162461bcd60e51b815260040161040990613359565b600082815260066020526040812080548390811061048657610486613343565b906000526020600020906006020160040154905060006064600454836104ac91906133b6565b6104b691906133cd565b6000858152600560205260409020600701549091506104e7906001600160a01b03166104e283856133ef565b6126b1565b6105026104fc6000546001600160a01b031690565b826126b1565b61050e336003546126b1565b505061051960018055565b5050565b6105256126eb565b6105196001600160a01b037f0000000000000000000000000000000000000000000000000000000000000000168383612745565b60606000805b6000848152600660205260409020548110156105d157600084815260066020526040902080548290811061059557610595613343565b600091825260209091206005600690920201015460ff16156105bf57816105bb81613402565b9250505b806105c981613402565b91505061055f565b508067ffffffffffffffff8111156105eb576105eb612d3e565b604051908082528060200260200182016040528015610614578160200160208202803683370190505b5091506000805b6000858152600660205260409020548110156106fa57600085815260066020526040902080548290811061065157610651613343565b600091825260209091206005600690920201015460ff16156106e857600085815260066020526040902080548290811061068d5761068d613343565b60009182526020909120600260069092020101546001600160a01b031684836106b581613402565b9450815181106106c7576106c7613343565b60200260200101906001600160a01b031690816001600160a01b0316815250505b806106f281613402565b91505061061b565b505050919050565b61070a612b63565b600083815260066020526040902080548390811061072a5761072a613343565b60009182526020918290206040805160e08101825260069093029091018054835260018101549383019390935260028301546001600160a01b031690820152600382015460608201526004820154608082015260059091015460ff808216151560a084015261010090910416151560c082015290505b92915050565b60008281526008602052604090205460ff166108045760405162461bcd60e51b815260206004820152601860248201527f4170706172746d656e74206e6f7420617661696c61626c6500000000000000006044820152606401610409565b336000908152600b6020908152604080832085845290915290205460ff1661086e5760405162461bcd60e51b815260206004820152601860248201527f426f6f6b206669727374206265666f72652072657669657700000000000000006044820152606401610409565b60008151116108bf5760405162461bcd60e51b815260206004820152601b60248201527f52657669657720746578742063616e6e6f7420626520656d70747900000000006044820152606401610409565b6108fa6040518060a001604052806000815260200160008152602001606081526020016000815260200160006001600160a01b031681525090565b60208082018490526000848152600790915260409081902054825281018290526109226127ad565b606082015233608082015260008381526007602090815260408083208054600181810183559185529383902085516005909502019384559184015191830191909155820151829190600282019061097990826134a3565b5060608201516003820155608090910151600490910180546001600160a01b0319166001600160a01b03909216919091179055505050565b6109b9612658565b60008281526006602052604081208054839081106109d9576109d9613343565b60009182526020918290206040805160e08101825260069093029091018054835260018101549383019390935260028301546001600160a01b031690820152600382015460608201526004820154608082015260059091015460ff80821615801560a085015261010090920416151560c0830152909150610a6c5760405162461bcd60e51b815260040161040990613359565b6000838152600a602090815260408083206060850151845290915290205460ff16610ad95760405162461bcd60e51b815260206004820152601a60248201527f446964206e6f7420626f6f6b206f6e20746869732064617465210000000000006044820152606401610409565b6000546001600160a01b03163314610bb45780604001516001600160a01b0316336001600160a01b031614610b475760405162461bcd60e51b8152602060048201526014602482015273556e617574686f72697a65642074656e616e742160601b6044820152606401610409565b610b4f6127ad565b816060015111610bb45760405162461bcd60e51b815260206004820152602a60248201527f43616e206e6f206c6f6e67657220726566756e642c20626f6f6b696e672064616044820152691d19481cdd185c9d195960b21b6064820152608401610409565b600083815260066020526040902080546001919084908110610bd857610bd8613343565b6000918252602080832060056006909302019190910180549315156101000261ff001990941693909317909255848152600a82526040808220606085015183528352808220805460ff19169055858252600990925290812054610c3d906001906133ef565b60008581526009602052604081208054929350909183908110610c6257610c62613343565b9060005260206000200154905080600960008781526020019081526020016000208581548110610c9457610c94613343565b906000526020600020018190555060096000868152602001908152602001600020805480610cc457610cc4613563565b60019003818190600052602060002001600090559055600060646003548560800151610cf091906133b6565b610cfa91906133cd565b90506000610d096002836133cd565b600088815260056020526040902060070154909150610d31906001600160a01b0316826126b1565b610d466104fc6000546001600160a01b031690565b610d58856040015186608001516126b1565b505050505061051960018055565b610d6e6126eb565b610d7860006127cc565b565b610d82612658565b6000828152600660205260408120805483908110610da257610da2613343565b60009182526020918290206040805160e08101825260069093029091018054835260018101549383019390935260028301546001600160a01b0316908201819052600383015460608301526004830154608083015260059092015460ff808216151560a084015261010090910416151560c082015291503314610e5e5760405162461bcd60e51b8152602060048201526014602482015273556e617574686f72697a65642074656e616e742160601b6044820152606401610409565b8060a0015115610e805760405162461bcd60e51b815260040161040990613359565b600083815260066020526040902080546001919084908110610ea457610ea4613343565b60009182526020822060069190910201600501805460ff1916921515929092179091556004546080830151606491610edb916133b6565b610ee591906133cd565b9050600060646003548460800151610efd91906133b6565b610f0791906133cd565b336000908152600b602090815260408083208984528252808320805460ff1916600117905560059091529020600701546080850151919250610f5b916001600160a01b0391909116906104e29085906133ef565b610f76610f706000546001600160a01b031690565b836126b1565b610f8033826126b1565b50505061051960018055565b606060076000838152602001908152602001600020805480602002602001604051908101604052809291908181526020016000905b828210156110bc57838290600052602060002090600502016040518060a001604052908160008201548152602001600182015481526020016002820180546110089061341b565b80601f01602080910402602001604051908101604052809291908181526020018280546110349061341b565b80156110815780601f1061105657610100808354040283529160200191611081565b820191906000526020600020905b81548152906001019060200180831161106457829003601f168201915b505050918352505060038201546020808301919091526004909201546001600160a01b03166040909101529082526001929092019101610fc1565b505050509050919050565b6060600060015b600254811161111757600081815260056020526040902060070154600160a81b900460ff16611105578161110181613402565b9250505b8061110f81613402565b9150506110ce565b508067ffffffffffffffff81111561113157611131612d3e565b60405190808252806020026020018201604052801561116a57816020015b611157612bad565b81526020019060019003908161114f5790505b509150600060015b600254811161149c57600081815260056020526040902060070154600160a81b900460ff1661148a576005600082815260200190815260200160002060405180610160016040529081600082015481526020016001820180546111d49061341b565b80601f01602080910402602001604051908101604052809291908181526020018280546112009061341b565b801561124d5780601f106112225761010080835404028352916020019161124d565b820191906000526020600020905b81548152906001019060200180831161123057829003601f168201915b505050505081526020016002820180546112669061341b565b80601f01602080910402602001604051908101604052809291908181526020018280546112929061341b565b80156112df5780601f106112b4576101008083540402835291602001916112df565b820191906000526020600020905b8154815290600101906020018083116112c257829003601f168201915b505050505081526020016003820180546112f89061341b565b80601f01602080910402602001604051908101604052809291908181526020018280546113249061341b565b80156113715780601f1061134657610100808354040283529160200191611371565b820191906000526020600020905b81548152906001019060200180831161135457829003601f168201915b5050505050815260200160048201805461138a9061341b565b80601f01602080910402602001604051908101604052809291908181526020018280546113b69061341b565b80156114035780601f106113d857610100808354040283529160200191611403565b820191906000526020600020905b8154815290600101906020018083116113e657829003601f168201915b5050509183525050600582015460208201526006820154604082015260078201546001600160a01b038116606083015260ff600160a01b8204811615156080840152600160a81b90910416151560a082015260089091015460c090910152848361146c81613402565b94508151811061147e5761147e613343565b60200260200101819052505b8061149481613402565b915050611172565b50505090565b60008781526008602052604090205460ff166114f75760405162461bcd60e51b8152602060048201526014602482015273105c1c185c9d1b595b9d081b9bdd08199bdd5b9960621b6044820152606401610409565b6000878152600560205260409020600701546001600160a01b0316331461156b5760405162461bcd60e51b815260206004820152602260248201527f556e617574686f72697a656420706572736f6e6e656c2c206f776e6572206f6e6044820152616c7960f01b6064820152608401610409565b60008651116115b35760405162461bcd60e51b81526020600482015260146024820152734e616d652063616e6e6f7420626520656d70747960601b6044820152606401610409565b60008551116116045760405162461bcd60e51b815260206004820152601b60248201527f4465736372697074696f6e2063616e6e6f7420626520656d70747900000000006044820152606401610409565b60008451116116505760405162461bcd60e51b81526020600482015260186024820152774c6f636174696f6e2063616e6e6f7420626520656d70747960401b6044820152606401610409565b600083511161169a5760405162461bcd60e51b8152602060048201526016602482015275496d616765732063616e6e6f7420626520656d70747960501b6044820152606401610409565b600082116116e15760405162461bcd60e51b8152602060048201526014602482015273526f6f6d732063616e6e6f74206265207a65726f60601b6044820152606401610409565b600081116117285760405162461bcd60e51b815260206004820152601460248201527350726963652063616e6e6f74206265207a65726f60601b6044820152606401610409565b60006005600089815260200190815260200160002060405180610160016040529081600082015481526020016001820180546117639061341b565b80601f016020809104026020016040519081016040528092919081815260200182805461178f9061341b565b80156117dc5780601f106117b1576101008083540402835291602001916117dc565b820191906000526020600020905b8154815290600101906020018083116117bf57829003601f168201915b505050505081526020016002820180546117f59061341b565b80601f01602080910402602001604051908101604052809291908181526020018280546118219061341b565b801561186e5780601f106118435761010080835404028352916020019161186e565b820191906000526020600020905b81548152906001019060200180831161185157829003601f168201915b505050505081526020016003820180546118879061341b565b80601f01602080910402602001604051908101604052809291908181526020018280546118b39061341b565b80156119005780601f106118d557610100808354040283529160200191611900565b820191906000526020600020905b8154815290600101906020018083116118e357829003601f168201915b505050505081526020016004820180546119199061341b565b80601f01602080910402602001604051908101604052809291908181526020018280546119459061341b565b80156119925780601f1061196757610100808354040283529160200191611992565b820191906000526020600020905b81548152906001019060200180831161197557829003601f168201915b5050509183525050600582810154602080840191909152600684015460408085019190915260078501546001600160a01b03811660608087019190915260ff600160a01b830481161515608080890191909152600160a81b90930416151560a08088019190915260089097015460c0968701528784018f81528884018f90529088018d90529087018b905294860189905292850187905260008d81529190522082518155905191925082916001820190611a4c90826134a3565b5060408201516002820190611a6190826134a3565b5060608201516003820190611a7690826134a3565b5060808201516004820190611a8b90826134a3565b5060a0820151600582015560c0820151600682015560e08201516007820180546101008501516101208601511515600160a81b0260ff60a81b19911515600160a01b026001600160a81b03199093166001600160a01b03909516949094179190911716919091179055610140909101516008909101555050505050505050565b611b13612bad565b600560008381526020019081526020016000206040518061016001604052908160008201548152602001600182018054611b4c9061341b565b80601f0160208091040260200160405190810160405280929190818152602001828054611b789061341b565b8015611bc55780601f10611b9a57610100808354040283529160200191611bc5565b820191906000526020600020905b815481529060010190602001808311611ba857829003601f168201915b50505050508152602001600282018054611bde9061341b565b80601f0160208091040260200160405190810160405280929190818152602001828054611c0a9061341b565b8015611c575780601f10611c2c57610100808354040283529160200191611c57565b820191906000526020600020905b815481529060010190602001808311611c3a57829003601f168201915b50505050508152602001600382018054611c709061341b565b80601f0160208091040260200160405190810160405280929190818152602001828054611c9c9061341b565b8015611ce95780601f10611cbe57610100808354040283529160200191611ce9565b820191906000526020600020905b815481529060010190602001808311611ccc57829003601f168201915b50505050508152602001600482018054611d029061341b565b80601f0160208091040260200160405190810160405280929190818152602001828054611d2e9061341b565b8015611d7b5780601f10611d5057610100808354040283529160200191611d7b565b820191906000526020600020905b815481529060010190602001808311611d5e57829003601f168201915b5050509183525050600582015460208201526006820154604082015260078201546001600160a01b038116606083015260ff600160a01b8204811615156080840152600160a81b90910416151560a082015260089091015460c09091015292915050565b6000865111611e275760405162461bcd60e51b81526020600482015260146024820152734e616d652063616e6e6f7420626520656d70747960601b6044820152606401610409565b6000855111611e785760405162461bcd60e51b815260206004820152601b60248201527f4465736372697074696f6e2063616e6e6f7420626520656d70747900000000006044820152606401610409565b6000845111611ec45760405162461bcd60e51b81526020600482015260186024820152774c6f636174696f6e2063616e6e6f7420626520656d70747960401b6044820152606401610409565b6000835111611f0e5760405162461bcd60e51b8152602060048201526016602482015275496d616765732063616e6e6f7420626520656d70747960501b6044820152606401610409565b60008211611f555760405162461bcd60e51b8152602060048201526014602482015273526f6f6d732063616e6e6f74206265207a65726f60601b6044820152606401610409565b60008111611f9c5760405162461bcd60e51b815260206004820152601460248201527350726963652063616e6e6f74206265207a65726f60601b6044820152606401610409565b611faa600280546001019055565b611fb2612bad565b60025481526020810187905260408101869052606081018590526080810184905260a0810183905260c081018290523360e0820152611fef6127ad565b61014082015280516000908152600860209081526040808320805460ff19166001908117909155845184526005835292208351815590830151839282019061203790826134a3565b506040820151600282019061204c90826134a3565b506060820151600382019061206190826134a3565b506080820151600482019061207690826134a3565b5060a0820151600582015560c0820151600682015560e08201516007820180546101008501516101208601511515600160a81b0260ff60a81b19911515600160a01b026001600160a81b03199093166001600160a01b039095169490941791909117169190911790556101409091015160089091015550505050505050565b60008181526009602090815260409182902080548351818402810184019094528084526060939283018282801561214b57602002820191906000526020600020905b815481526020019060010190808311612137575b50505050509050919050565b60008181526008602052604090205460ff166121ac5760405162461bcd60e51b8152602060048201526014602482015273105c1c185c9d1b595b9d081b9bdd08199bdd5b9960621b6044820152606401610409565b6000818152600560205260409020600701546001600160a01b0316331461220b5760405162461bcd60e51b8152602060048201526013602482015272556e617574686f72697a656420656e7469747960681b6044820152606401610409565b6000908152600860209081526040808320805460ff1916905560059091529020600701805460ff60a81b1916600160a81b179055565b612249612658565b60008281526008602052604090205460ff1661229e5760405162461bcd60e51b815260206004820152601460248201527341706172746d656e74206e6f7420666f756e642160601b6044820152606401610409565b6122a8828261281c565b6122f45760405162461bcd60e51b815260206004820152601e60248201527f426f6f6b6564206461746520666f756e6420616d6f6e672064617465732100006044820152606401610409565b6000828152600560205260408120600601548251909161231482846133b6565b9050600060646003548361232891906133b6565b61233291906133cd565b905060006123408284613579565b90506123776001600160a01b037f0000000000000000000000000000000000000000000000000000000000000000163330846128c0565b60005b848110156125155761238a612b63565b60208082018a905260008a81526006909152604090819020548252339082015287518890839081106123be576123be613343565b602090810291909101810151606083019081526080830189815260008c8152600680855260408083208054600181810183559185528785208951919094029093019283558787015183820155818801516002840180546001600160a01b039092166001600160a01b0319909216919091179055945160038301559251600482015560a08601516005909101805460c088015115156101000261ff00199315159390931661ffff19909116179190911790558c8152600a90935282208a51919290918b908690811061249157612491613343565b6020026020010151815260200190815260200160002060006101000a81548160ff021916908315150217905550600960008a81526020019081526020016000208883815181106124e3576124e3613343565b60209081029190910181015182546001810184556000938452919092200155508061250d81613402565b91505061237a565b50505050505061051960018055565b61252c6126eb565b6001600160a01b0381166125915760405162461bcd60e51b815260206004820152602660248201527f4f776e61626c653a206e6577206f776e657220697320746865207a65726f206160448201526564647265737360d01b6064820152608401610409565b61259a816127cc565b50565b606060066000838152602001908152602001600020805480602002602001604051908101604052809291908181526020016000905b828210156110bc5760008481526020908190206040805160e08101825260068602909201805483526001808201548486015260028201546001600160a01b03169284019290925260038101546060840152600481015460808401526005015460ff808216151560a085015261010090910416151560c083015290835290920191016125d2565b6002600154036126aa5760405162461bcd60e51b815260206004820152601f60248201527f5265656e7472616e637947756172643a207265656e7472616e742063616c6c006044820152606401610409565b6002600155565b8015610519576105196001600160a01b037f0000000000000000000000000000000000000000000000000000000000000000168383612745565b6000546001600160a01b03163314610d785760405162461bcd60e51b815260206004820181905260248201527f4f776e61626c653a2063616c6c6572206973206e6f7420746865206f776e65726044820152606401610409565b6040516001600160a01b0383166024820152604481018290526127a890849063a9059cbb60e01b906064015b60408051601f198184030181529190526020810180516001600160e01b03166001600160e01b0319909316929092179091526128fe565b505050565b60006127bb426103e86133b6565b6127c7906103e8613579565b905090565b600080546001600160a01b038381166001600160a01b0319831681178455604051919092169283917f8be0079c531659141344cd1fd0a4f28419497f9722a3daafe3b4186f6b6457e09190a35050565b60006001815b83518110156128b85760005b6000868152600960205260409020548110156128a557600086815260096020526040902080548290811061286457612864613343565b906000526020600020015485838151811061288157612881613343565b60200260200101510361289357600092505b8061289d81613402565b91505061282e565b50806128b081613402565b915050612822565b509392505050565b6040516001600160a01b03808516602483015283166044820152606481018290526128f89085906323b872dd60e01b90608401612771565b50505050565b6000612953826040518060400160405280602081526020017f5361666545524332303a206c6f772d6c6576656c2063616c6c206661696c6564815250856001600160a01b03166129d39092919063ffffffff16565b9050805160001480612974575080806020019051810190612974919061358c565b6127a85760405162461bcd60e51b815260206004820152602a60248201527f5361666545524332303a204552433230206f7065726174696f6e20646964206e6044820152691bdd081cdd58d8d9595960b21b6064820152608401610409565b60606129e284846000856129ea565b949350505050565b606082471015612a4b5760405162461bcd60e51b815260206004820152602660248201527f416464726573733a20696e73756666696369656e742062616c616e636520666f6044820152651c8818d85b1b60d21b6064820152608401610409565b600080866001600160a01b03168587604051612a6791906135ae565b60006040518083038185875af1925050503d8060008114612aa4576040519150601f19603f3d011682016040523d82523d6000602084013e612aa9565b606091505b5091509150612aba87838387612ac5565b979650505050505050565b60608315612b34578251600003612b2d576001600160a01b0385163b612b2d5760405162461bcd60e51b815260206004820152601d60248201527f416464726573733a2063616c6c20746f206e6f6e2d636f6e74726163740000006044820152606401610409565b50816129e2565b6129e28383815115612b495781518083602001fd5b8060405162461bcd60e51b815260040161040991906135ca565b6040518060e00160405280600081526020016000815260200160006001600160a01b0316815260200160008152602001600081526020016000151581526020016000151581525090565b6040518061016001604052806000815260200160608152602001606081526020016060815260200160608152602001600081526020016000815260200160006001600160a01b03168152602001600015158152602001600015158152602001600081525090565b60008060408385031215612c2757600080fd5b50508035926020909101359150565b80356001600160a01b0381168114612c4d57600080fd5b919050565b60008060408385031215612c6557600080fd5b612c6e83612c36565b946020939093013593505050565b600060208284031215612c8e57600080fd5b5035919050565b6020808252825182820181905260009190848201906040850190845b81811015612cd65783516001600160a01b031683529284019291840191600101612cb1565b50909695505050505050565b80518252602080820151908301526040808201516001600160a01b031690830152606080820151908301526080808201519083015260a08082015115159083015260c0908101511515910152565b60e081016107a08284612ce2565b634e487b7160e01b600052604160045260246000fd5b604051601f8201601f1916810167ffffffffffffffff81118282101715612d7d57612d7d612d3e565b604052919050565b600082601f830112612d9657600080fd5b813567ffffffffffffffff811115612db057612db0612d3e565b612dc3601f8201601f1916602001612d54565b818152846020838601011115612dd857600080fd5b816020850160208301376000918101602001919091529392505050565b60008060408385031215612e0857600080fd5b82359150602083013567ffffffffffffffff811115612e2657600080fd5b612e3285828601612d85565b9150509250929050565b60005b83811015612e57578181015183820152602001612e3f565b50506000910152565b60008151808452612e78816020860160208601612e3c565b601f01601f19169290920160200192915050565b60006020808301818452808551808352604092508286019150828160051b87010184880160005b83811015612f1c57603f19898403018552815160a0815185528882015189860152878201518189870152612ee982870182612e60565b606084810151908801526080938401516001600160a01b0316939096019290925250509386019390860190600101612eb3565b509098975050505050505050565b6000610160825184526020830151816020860152612f4a82860182612e60565b91505060408301518482036040860152612f648282612e60565b91505060608301518482036060860152612f7e8282612e60565b91505060808301518482036080860152612f988282612e60565b91505060a083015160a085015260c083015160c085015260e0830151612fc960e08601826001600160a01b03169052565b5061010083810151151590850152610120808401511515908501526101409283015192909301919091525090565b6000602080830181845280855180835260408601915060408160051b870101925083870160005b8281101561304c57603f1988860301845261303a858351612f2a565b9450928501929085019060010161301e565b5092979650505050505050565b600080600080600080600060e0888a03121561307457600080fd5b87359650602088013567ffffffffffffffff8082111561309357600080fd5b61309f8b838c01612d85565b975060408a01359150808211156130b557600080fd5b6130c18b838c01612d85565b965060608a01359150808211156130d757600080fd5b6130e38b838c01612d85565b955060808a01359150808211156130f957600080fd5b506131068a828b01612d85565b93505060a0880135915060c0880135905092959891949750929550565b6020815260006131366020830184612f2a565b9392505050565b60008060008060008060c0878903121561315657600080fd5b863567ffffffffffffffff8082111561316e57600080fd5b61317a8a838b01612d85565b9750602089013591508082111561319057600080fd5b61319c8a838b01612d85565b965060408901359150808211156131b257600080fd5b6131be8a838b01612d85565b955060608901359150808211156131d457600080fd5b506131e189828a01612d85565b9350506080870135915060a087013590509295509295509295565b6020808252825182820181905260009190848201906040850190845b81811015612cd657835183529284019291840191600101613218565b6000806040838503121561324757600080fd5b8235915060208084013567ffffffffffffffff8082111561326757600080fd5b818601915086601f83011261327b57600080fd5b81358181111561328d5761328d612d3e565b8060051b915061329e848301612d54565b81815291830184019184810190898411156132b857600080fd5b938501935b838510156132d6578435825293850193908501906132bd565b8096505050505050509250929050565b6000602082840312156132f857600080fd5b61313682612c36565b6020808252825182820181905260009190848201906040850190845b81811015612cd657613330838551612ce2565b9284019260e0929092019160010161331d565b634e487b7160e01b600052603260045260246000fd5b60208082526027908201527f41706172746d656e7420616c726561647920636865636b6564206f6e207468696040820152667320646174652160c81b606082015260800190565b634e487b7160e01b600052601160045260246000fd5b80820281158282048414176107a0576107a06133a0565b6000826133ea57634e487b7160e01b600052601260045260246000fd5b500490565b818103818111156107a0576107a06133a0565b600060018201613414576134146133a0565b5060010190565b600181811c9082168061342f57607f821691505b60208210810361344f57634e487b7160e01b600052602260045260246000fd5b50919050565b601f8211156127a857600081815260208120601f850160051c8101602086101561347c5750805b601f850160051c820191505b8181101561349b57828155600101613488565b505050505050565b815167ffffffffffffffff8111156134bd576134bd612d3e565b6134d1816134cb845461341b565b84613455565b602080601f83116001811461350657600084156134ee5750858301515b600019600386901b1c1916600185901b17855561349b565b600085815260208120601f198616915b8281101561353557888601518255948401946001909101908401613516565b50858210156135535787850151600019600388901b60f8161c191681555b5050505050600190811b01905550565b634e487b7160e01b600052603160045260246000fd5b808201808211156107a0576107a06133a0565b60006020828403121561359e57600080fd5b8151801515811461313657600080fd5b600082516135c0818460208701612e3c565b9190910192915050565b6020815260006131366020830184612e6056fea26469706673582212206998c2e957c1de6f9ebf864cfcba06a833215de517705840d8db4e6e33d9108b64736f6c63430008130033",
  "linkReferences": {},
  "deployedLinkReferences": {}
}